:020000040800F2
:1000000058480020E1020008E9020008EB0200085D
:10001000ED020008EF020008F102000800000000F5
:10002000000000000000000000000000F3020008D3
:10003000F502000800000000F7020008F9020008BD
:10004000FB020008FB020008FB020008FB0200089C
:10005000FB020008FB020008FB020008FB0200088C
:10006000FB020008FB020008FB020008FB0200087C
:10007000FB020008FB020008FB020008FB0200086C
:10008000FB020008FB020008FB020008FB0200085C
:10009000FB020008FB020008FB020008FB0200084C
:1000A000FB020008FB020008FB020008FB0200083C
:1000B000FB020008FB020008FB020008FB0200082C
:1000C000FB020008FB020008FB020008FB0200081C
:1000D000FB020008CD370008FB020008FB02000805
:1000E000FB020008FB020008FB020008FB020008FC
:1000F000FB020008FB020008FB020008FB020008EC
:10010000FB020008FB020008FB020008FB020008DB
:10011000FB020008FB020008FB020008FB020008CB
:10012000FB020008FB020008FB020008FB020008BB
:10013000FB020008FB020008FB020008FB020008AB
:10014000FB020008FB020008FB020008FB0200089B
:10015000FB020008FB020008FB020008FB0200088B
:10016000FB020008FB020008FB020008FB0200087B
:10017000FB020008FB020008FB020008FB0200086B
:10018000FB020008FB02000800F002F800F098F8FB
:100190000AA090E8000C82448344AAF10107DA45E2
:1001A00001D100F08DF8AFF2090EBAE80F0013F09C
:1001B000010F18BFFB1A43F00103184730B80000C5
:1001C00050B80000103A24BF78C878C1FAD8520756
:1001D00024BF30C830C144BF04680C6070470000C1
:1001E0000023002400250026103A28BF78C1FBD840
:1001F000520728BF30C148BF0B6070476E2900F01E
:100200000185702900F0DD81662907F025816529C7
:1002100007F02281672907F01F816129AFF3008071
:1002200003681B0A28BF41F08001692900F04E8154
:10023000642900F04B81752900F048816F2901F095
:100240000F80782900F0A981E92900F0A987E42925
:1002500000F0A687F52900F0A387EF2901F00C80B4
:10026000F82900F0A8810368DB0928BF41F080016C
:10027000632900F01887732900F01D87E32901F036
:100280006D81F32901F07281002070471FB507F0DE
:10029000D9F89DE8030000F009FC00F0E7FB04003A
:1002A0000020002106F068FB401C60600020002157
:1002B00006F078FBE06000F0C1FB1FBD10B510BD7B
:1002C00001F066FA1146FFF7E1FF03F0F7FE01F0D7
:1002D000D7FC03B4FFF7F2FF03BC03F035FE0000C8
:1002E0000948804709480047FEE7FEE7FEE7FEE7CA
:1002F000FEE7FEE7FEE7FEE7FEE7FEE70448054906
:10030000054A064B70470000653700088901000860
:10031000580800205848002058280020582800205D
:100320007047000010B500F0A1FB001D10BD00BF1C
:100330004966000070B5064600F094FB056806F1BA
:100340000B0020F00704B4429CBF002070BD2B4678
:100350006A68BAB11068A04210D304F1080188425B
:100360003CBF5068586007D351681019416011684C
:10037000091B016058601460101D70BD134652685F
:10038000002AE7D12146284600F07CFB0028DED178
:1003900070BD70B50446051F00F064FB0068002CBA
:1003A00014BF446870BD002C18BFAC423CBF20464F
:1003B0006468F8D301680A18AA4218BF456003D1DF
:1003C0002A6805461144016028684119A1421CBFF2
:1003D0006C6070BD6168696021680844286070BD08
:1003E0007CB51D4616460C00009001D02044401EEE
:1003F000074B7B442A4669460190304600F029FEAF
:1004000005461CB10020694600F036FE28467CBD3A
:100410008D0C00000FB4044910B503AA029800F037
:100420004FFE10BC5DF814FB1C00002070B50446A4
:1004300085690068C10601D5302600E02026C00786
:1004400007D070BDD4E9012130469047206A401C96
:1004500020626D1EF6D570BD70B5044685690078C2
:10046000C00707D170BDD4E9012120209047206A40
:10047000401C20626D1EF6D570BD70B50C46054659
:10048000012A05D02878800600D5EA69002302E019
:10049000012305E05B1C934202D2E05C0028F9D105
:1004A000A869E618C01AA861286A18442862284674
:1004B000FFF7BCFF04E0D5E9012114F8010B9047D8
:1004C000B442F8D32846FFF7C7FF70BD2DE9F041CD
:1004D0000646002410687529314616A510D000F094
:1004E00026FB002802DA404213A507E031688A079C
:1004F00001D512A502E0490704D511A5012401E0A8
:1005000000F01EFB00210A2206F1240709E0B0FBDF
:10051000F2FCB0FBF2F302FB1C00303078541846BA
:10052000491C0028F3D123462A463046BDE8F04155
:1005300000F00FBB000000002D0000002B000000A9
:1005400020000000F0B40D460188090502D5214CB9
:100550007C4402E01F4C7C440E34002100F1240650
:1005600008E002F00F071209E75D42EA03721B0977
:100570007754491C52EA0307F3D10278002312078B
:1005800004D5702D06D009B1022311342246F0BCE7
:1005900000F0DFBA01231034F8E770B504460D46C9
:1005A0002146106800F0CCFA024629462046BDE8F4
:1005B00070400023C6E7D21D22F00703D3E90023D1
:1005C000C0E70368126843F0200303600823C36197
:1005D0000023B7E7D0B200002DE9F05F894604465A
:1005E0004FF0000ADFF874B1FB44C0F820A02046A9
:1005F000E1688847002874D0252806D0D4E9012175
:100600009047206A401C2062F1E700265F462046A2
:10061000E16888472028054607DB312D05D2781987
:1006200010F8200C08B10643F1E7B00701D526F019
:100630000406C4F81CA00027C4F818A02A2D09D06D
:10064000284603F017FC38B304EB8708303DC8F8A0
:10065000185019E059F8041B204604EB87029161F9
:10066000E1688847012F054618D1E069002820DAA3
:1006700026F020061DE0D8F8180000EB800005EBFE
:1006800040003038C8F818002046E1688847054621
:1006900003F0F0FB0028EED1012F0AD02E2D08D157
:1006A0002046E16888477F1C0546022F46F0200659
:1006B000C4DBA069002803DA404246F00106A061CD
:1006C000F00701D026F010066C2D0BD0682D09D054
:1006D0004C2D39D06A2D35D0742D35D07A2D33D0AC
:1006E00016E038E0E1682F4620468847B8420546C4
:1006F00009D16C2F26D04FF48060E1680643204674
:100700008847054604E06C2F1AD04FF480700643EA
:100710000DB3A5F14100192802D8203546F4006632
:100720004A462946204626604E46FFF767FD80B1BF
:1007300001280BD0F61D26F0070000F1080956E746
:100740004020E4E78020D8E70020D6E706F104093E
:100750004DE7284652E7206ABDE8F09F60B20000EE
:100760002DE9F04791460F4680460446002614F8CE
:10077000015B2DB1FFF7D6FD0068405DC007F6D1E3
:100780002B2D02D02D2D18D0641E4A463946204606
:1007900000F07CFD27B13968A14201D1C7F8008083
:1007A0004FF0020471050BD54042002803DD00F034
:1007B00061F90460A007BDE8F08746F48066E4E7CD
:1007C0000028F8DA00F056F904606FF00040F2E714
:1007D0000EB5054614460E4613A000F0FFFD284650
:1007E00000F0FCFD16A000F0F9FD304600F0F6FD2B
:1007F00015A000F0F3FD00218DF80B100A210DF17A
:100800000A008DF80A1008E094FBF1F201FB124295
:1008100094FBF1F4303200F8012D002CF4DC00F0F0
:10082000DDFD00F0D3FD00002A2A2A2061737365E4
:100830007274696F6E206661696C65643A200000AD
:100840002C2066696C6520002C206C696E65200088
:1008500040EA010310B59B070FD1042A0DD310C83D
:1008600008C9121F9C42F8D020BA19BA884201D98F
:10087000012010BD4FF0FF3010BD1AB1D30703D0D7
:10088000521C07E0002010BD10F8013B11F8014B8D
:100890001B1B07D110F8013B11F8014B1B1B01D1A9
:1008A000921EF1D1184610BD10B5431C02E010F89D
:1008B000011B71B18107FAD14FF0013202C88C1AC5
:1008C0008C4314EAC211F9D0C01A0A0603D0C01E24
:1008D00010BDC01A10BD0A0401D0801E10BD09024F
:1008E000FCD0401E10BDCBB22AB101788B4203D0A0
:1008F000401C521EF9D100207047032A40F230807C
:1009000010F0030C00F0158011F8013BBCF1020F50
:10091000624498BF11F801CB00F8013B38BF11F8D1
:10092000013BA2F1040298BF00F801CB38BF00F8E8
:10093000013B11F0030300F02580083AC0F0088065
:1009400051F8043B083A51F804CBA0E80810F5E749
:10095000121D5CBF51F8043B40F8043BAFF300802C
:10096000D20724BF11F8013B11F801CB48BF11F8A1
:10097000012B24BF00F8013B00F801CB48BF00F871
:10098000012B704710B5203AC0F00B80B1E8185029
:10099000203AA0E81850B1E81850A0E81850BFF469
:1009A000F5AF5FEA027C24BFB1E81850A0E8185008
:1009B00044BF18C918C0BDE810405FEA827C24BF5C
:1009C00051F8043B40F8043B08BF7047D20728BFEA
:1009D00031F8023B48BF11F8012B28BF20F8023B39
:1009E00048BF00F8012B70474FF0000200B51346D6
:1009F00094469646203922BFA0E80C50A0E80C503F
:100A0000B1F12001BFF4F7AF090728BFA0E80C50EF
:100A100048BF0CC05DF804EB890028BF40F8042BE8
:100A200008BF704748BF20F8022B11F0804F18BF55
:100A300000F8012B704770477047704770B5064C3F
:100A40007C44064D7D4403E0206820448047241DFB
:100A5000AC42F9D170BD0000FCB00000FCB0000059
:100A60007047000000487047FC07002000487047AE
:100A70001408002000487047F407002070477047B2
:100A80007047704738B504460A4600206946AFF300
:100A90000080002808BF38BD02460099204600F0BB
:100AA000ABFC012038BD012000F02BBEF8B5AFF340
:100AB0000080054600200C46102000BF0646A819FD
:100AC000A0420DD9324669460020AFF300800700EE
:100AD00008BF00F016FE0098A04218BF0546C419D2
:100AE000FFF7C0FF05600746F01D20F0070046191C
:100AF000284600F00AF8B44208BFF8BDA21B3146F0
:100B00003868BDE8F84000F077BC00210160C0E91A
:100B1000011070471020704710B5FFF7ABFF006859
:100B200010BD10B50446FFF7A5FF046010BD0968AD
:100B30004A0501D540B27047C905FCD500B27047DF
:100B400009684A0501D5C0B27047C905FCD580B215
:100B500070472DE9F0470D4699469246044600F14C
:100B600024080168880604D5E06921F0100121609D
:100B700000E00120A84201DD471B00E00027A16939
:100B80007A1902EB0900081AA0612078C00602D485
:100B90002046FFF74BFC002608E0D4E901211AF8B3
:100BA00006009047206A401C761C20624E45F4DB0C
:100BB0002078C0060AD52046FFF738FC06E0D4E9C5
:100BC000012130209047206A401C2062381EA7F186
:100BD0000107F4DC07E0D4E9012118F8050090478B
:100BE000206A401C2062281EA5F10105F3DC204686
:100BF000FFF732FC2078000602D50220BDE8F0871E
:100C00000120FBE711680268006A530501D50870EE
:100C10000AE0D30501D5088006E0130603D5C21704
:100C2000C1E9000200E008600120704770472DE92B
:100C3000FF4F0C461E464FF0FF378BB0D2E9000144
:100C4000DDF860800A908A46C1F30A5505B93D4631
:100C5000002108464FF00000BAF1000F00F44000F8
:100C600005DA00EB80004FF4400101EA50004FEA42
:100C70009059B9F1010F00DDB9460A9850EA4A00CF
:100C80000ED044F61050A5F2FF3545432F14B8F1AD
:100C9000000F1ED07542291E1EDDC9F100021CE0A6
:100CA000B8F1010F4FF0000001D0302103E0F24312
:100CB00005E02154401CB042FBDB304600220021FD
:100CC00021540B99C1F80880C1E900200FB0BDE89C
:100CD000F08FBD1B6D1CDEE74A4600DA694206A8AC
:100CE00000F076FC06AB93E8070003AB83E807004F
:100CF00050460A9901F063FA8DE80700A0F500500C
:100D00001F3800900398002D09DD42F21F014A466A
:100D1000084403A90390684601F0EDFC08E0A0F543
:100D200000504A461F3803A90390684601F00BFDA6
:100D30008DE807000004000C03D04FF0FF3041089D
:100D400000E01046B8F1000F03D0002200921546D3
:100D50001EE0751E05D400F069FB303262556D1E31
:100D6000F9D5B3460122084302D000227F1C04E0DB
:100D70002078302801D100227F1E002A099786D0D2
:100D80001DE0112D07DA00F051FB303262556D1C69
:100D900050EA0102F5D1084302D00098C8B10EE034
:100DA0000021681E05E0235C625C63542254401EEF
:100DB000491C8142F7DBAB46A81B401E099000206E
:100DC00004F80B000B98099AC0F80880C0E9002BC2
:100DD0007CE711264FF0000859E72DE9F04F8846CF
:100DE0000446D21D22F0070191B0D1E90001CDE9FE
:100DF0000A0102F01CFF02460B98C00F01D02D2003
:100E000007E02068810701D52B2002E0202101EABC
:100E1000C000032A099001D0072A05DB034641469A
:100E2000204600F051FB0BE12078800601D5E069F7
:100E300000E00620B8F1650F814606D0B8F1660FD4
:100E400018D0B8F1670F70D131E00020B9F1110F5F
:100E5000009001DB112301E009F101030AAA01A9B5
:100E60000CA8FFF7E4FEDDE90C70002609F101058E
:100E7000834647E001204B4600904FF000470AAA06
:100E800001A90CA8FFF7D3FEDDE90DB00C995D4672
:100E9000002610B909F101000D18B9EB050003D4C3
:100EA000C0F1FF3609F10105A5EB09002BE0B9F10E
:100EB000010F01DA4FF001090020B9F1110F009084
:100EC000484601DD112300E003460AAA01A90CA847
:100ED000FFF7ADFEDDE90C704D4600268346207815
:100EE00000070AD4AB4500DA5D4601A8012D04DDF8
:100EF000411911F8011C302907D04F4502DA17F1CA
:100F0000040F04DA012082460FE06D1EEEE7002F89
:100F100002DCED1B3E4403E0781CA84200DD7D1C92
:100F2000B81B00F1010A4FF000472078000703D4F6
:100F3000AA4501DB4FF0FF3A0021B7F1004F0DF158
:100F400043088DF8431024D002202B23002F01DA10
:100F50007F422D230A21021EA0F1010000DC5FB1B7
:100F600097FBF1FC97FBF1F201FB1C7C17460CF19F
:100F7000300C08F801CDEEE7A8F1010003702188DC
:100F8000090501D5452100E06521A0F1010800F81F
:100F9000011C09980FA9A1EB0807FF1D00B1012052
:100FA000411901EBEA70A1693844081A401EA0619A
:100FB0002078C00602D42046FFF738FA099828B1F5
:100FC000D4E901219047206A401C20622078C006A5
:100FD00022D52046FFF72AFA1EE0002E04DBB34597
:100FE00002DD01A8805D00E03020D4E901219047B6
:100FF000206A401C2062761CAAF101005FEA000A08
:101000000AD1FFF733FDC0680168405CD4E90121D3
:101010009047206A401C2062281EA5F10105DCDCF7
:1010200007E0D4E9012118F8010B9047206A401C21
:101030002062381EA7F10107F3DC2046FFF70CFA07
:10104000032011B043E6000001694A1C02610878E0
:10105000704700B58FB0CDE90131002105910549F8
:101060007944CDE9031011466846FFF7B5FA0FB091
:1010700000BD0000E5FFFFFF0A6802F8010B0A60EF
:101080007047D1E900239A4202D2531C0B601070C2
:10109000704710B5436913B1AFF3008001E0FFF76B
:1010A000ECF9012010BD127800F124010A70002231
:1010B0004A700122EDE711684FF0FF32E9E70000C6
:1010C000074B70B50D467B44FFF7C3FF0446284627
:1010D00000F0ECFA10B14FF0FF3070BD204670BD4B
:1010E0004B2F00002DE9FF5F15468A460446DFF8C6
:1010F000AC80F8440027D8E900103E46CDE9001046
:1011000010E03AF816106A4602A800F0D3FA411C23
:1011100007D02178890603D5E269391891420DD8A4
:101120000744761C2078800602D5E069B84205DDC8
:10113000AE42E6DB3AF816000028E2D1A069C01BF7
:10114000A0612046FFF772F9D8E90010CDE9001040
:10115000002017E03AF818106A4602A800F0AAFA30
:10116000B0F1FF3F81460BD000250DF1080B05E0E3
:10117000D4E901211BF8050090476D1C4D45F7D3BC
:1011800008F10100B0428046E4DB206A3844206266
:101190002046FFF761F9BDE8FF9F00006AA7000045
:1011A0002DE9F0418046D21D22F007020025D2E948
:1011B0000002F52915A614D0011E72F1000106DA0D
:1011C0000023D0EB030063EB020211A608E0D8F87D
:1011D00000108B0701D50FA602E0490701D50EA626
:1011E00001251146002408F1240704E000F01EF94F
:1011F00030323A55641C50EA0102F7D12B46324690
:1012000021464046BDE8F041FFF7A3BC00000000C6
:101210002D0000002B0000002000000030B4002151
:1012200000F1240408E002F00705D208303542EA54
:101230004372DB086554491C52EA0305F3D1046884
:10124000002310A2250708D504F020040C4304D085
:10125000C46901230CA2641EC46130BCFFF779BCD1
:1012600010B5044621461068FFF76AFC0246204686
:10127000BDE810400023D1E7D21D22F00701D1E9DB
:101280000023CBE700000000300000002DE9F05FF4
:10129000824615468B4600270AF10104B9460078BC
:1012A000302801D09DB113E014F8010B01277828F4
:1012B00003D0582801D045B10AE00DB1102D07D157
:1012C000002714F8010B102502E0082500E00A258C
:1012D0000026B0460EE005FB080005FB06F10127DD
:1012E0001FFA80F801EB1046B6F5803F00D3B946EF
:1012F00014F8010B294600F03DF90028EBDABBF1A8
:10130000000F05D00FB1641E00E05446CBF800403A
:10131000B9F1000F06D0FFF7ADFB02210160C81E36
:10132000BDE8F09F48EA0640FAE700000FB400234A
:1013300000B589B00CA900910B99CB60204B7B4480
:101340000693204B7B44079304236FF00042CDE9C2
:1013500001321D4A7A446B4608920246002006F08C
:10136000DDF809B05DF814FB70B506464FF0FF30AC
:1013700015460C46324686B00091CDE9010169461A
:101380000020049004A8FFF7D1FF03460498211819
:1013900025B108B10A4600E022462A6000280DD097
:1013A000002B02DD0098884208D03246081B6946AF
:1013B0000094CDE9010404A8FFF7B8FF06B070BDA2
:1013C0004F020000670200005F010000002000F0F3
:1013D00091F9FEF773FF012002F0B6FD10B5044647
:1013E00002E0641C02F0B2FD20780028F9D110BDA3
:1013F00000487047F4070020034640688C460028E8
:1014000018BF88423CBF03464068F8D318681844A8
:10141000884207D00CF1030020F00700001D411A9C
:10142000521A0146081D0A60FEF7B3BF30B5B0F18D
:101430000A024FEA900E71F100034EEA817EB0EB92
:101440000E0061EB91014FEA101E4EEA017E10EB97
:101450000E0041EB11114FEA102E4EEA016E10EB17
:101460000E0041EB11214FEA104E4EEA014E10EBF7
:101470000E0041EB1141401841F100014FEAD0004C
:1014800040EA41704FEAD10110EB80054FEA810438
:1014900044EA907444EB01046D1944EB0404521BBC
:1014A000A3414FF0000348BF0A3200D530BD401CB5
:1014B00041F1000130BD10B50446FEF733FF00686E
:1014C000005D00F0010010BD2DE9F0411F4604460B
:1014D00003260168072A01F4006004DB08B116A5A1
:1014E00005E016A503E008B115A500E015A521F05B
:1014F00010002060A069C01EA0610FB1401EA06155
:101500002046FEF793FF4FB1D4E9012138469047BA
:10151000206A401C2062C01C206206E0206AFAE7B4
:10152000D4E9012115F8010B9047761EF8D2204628
:10153000FEF792FFBDE8F0814E414E006E616E00F5
:10154000494E4600696E660010B5436913B1AFF3AA
:10155000008001E0FFF7C6FD012010BD128800F1F8
:10156000240182840022C2840122EDE711684FF039
:10157000FF32E9E73A2800D2303820F02002412A31
:1015800001D3A2F13700884201D34FF0FF307047FA
:10159000426842B1016811F8013B23B1521EC0E913
:1015A0000012184670470121C160881E70474268CA
:1015B0005AB1C368016843B983688B4205D0491E9C
:1015C000521CC0E90012002070474FF0FF307047F6
:1015D0002DE9F047814616468AB0334878440DC855
:1015E0008DE80D0030487844801C03AC0DC884E8B9
:1015F0000D0041F69B300844372190FBF1F290FB3F
:10160000F1F5A5F1800501FB12041B3C02D56442F3
:10161000012000E00020DFF890A080460027FA4477
:10162000AAF1BE0A0DE0E00709D03246684607EB92
:1016300047010AEB810101F086F88DE8070064108C
:101640007F1C002CEFD1184F7F44AC3F18E0E80717
:1016500014D007EB04100DF1180A90E80E008AE888
:101660000E00C068F04201D198190890324606A9D0
:1016700003A801F068F803AB83E807006D10641C51
:10168000002DE4D132466946B8F1000F03A802D01C
:1016900001F031F801E001F056F8C9E90001C9F89C
:1016A00008200AB0BDE8F08704A30000007B00F02A
:1016B0008000704770B516460C460546FEF732FEB0
:1016C000036893F80101012806D0FF2C0FD8185D9C
:1016D00068B101202C7070BDD3F807013246214655
:1016E00003F2071303442846BDE8704018474FF043
:1016F000FF3070BD10B500F0CFFABDE8104000F02B
:10170000C5BA10B500F0E0FABDE8104000F0BEBA6E
:101710004FF0013C50F8042B51F8043B9A4221D180
:10172000A2EB0C03934313EACC1317D150F8042B0C
:1017300051F8043B9A4215D1A2EB0C03934313EAF0
:10174000CC130BD150F8042B51F8043B9A4209D129
:10175000A2EB0C03934313EACC13DBD04FF0000051
:10176000704700BFD01A01BAB1FA81F101F0180137
:1017700022FA01F0CB40C1F12001DBB2C0B2C01AA5
:101780002CFA01F3D11A914311EAC311E6D1704743
:101790007546FFF72DFEAE4605006946534620F01C
:1017A0000700854618B020B5FEF7A8FDBDE820402B
:1017B0004FF000064FF000074FF000084FF0000B0D
:1017C00021F00701AC46ACE8C009ACE8C009ACE8C0
:1017D000C009ACE8C0098D46704700002DE9FF4FF5
:1017E000064689B00878FF2806D0491C2D2805D068
:1017F00000244FF0000908E000200CE00124F8E785
:1018000009EB8903491C00EB43090878FF28F7D14D
:1018100014B1C9F100008146107800252C46AA4673
:1018200029462D2801D02B2804D1521C2D2813D055
:10183000002082468B461078FF280FD04FF0000C16
:101840000A21521CA5FB017804FB018105FB0C1148
:10185000C5194BEB0104EEE70120EAE70021084639
:101860004FF00000BAF1000F02D000EB80004008FA
:10187000C0F38158B8F1010F01DD4FF0FF380C982B
:1018800009EB000755EA040009D04FF0020917F5EB
:10189000FA7F0BDA4FEACA70C6E900B012E04FEAED
:1018A000CA70C6E900B00DB0BDE8F08FB7F5FA7F99
:1018B0000DDDF0487844D0E90010C6E9001040EA98
:1018C000CA707060FFF7D6F8C0F80090EBE7391ED9
:1018D00002DAC8F1000200E0424600DA794206A8C6
:1018E000FFF776FE06AB93E8070003AB83E807003B
:1018F00044F23E005BEA04010090584604D144F2F1
:101900001E012C465D460091210C0904014306D1BD
:101910000099240444EA15442D041039009104F080
:101920007F41014306D10099240244EA15642D0247
:101930000839009104F07041014306D10099240157
:1019400044EA15742D01091F009104F04041014340
:1019500006D10099A40044EA9574AD00891E009157
:1019600004F00041084304D100986D196441401E01
:10197000009042466846002FCDE9014503A902DDEB
:1019800000F0F5FE01E000F0CAFEBAF1000F0446D7
:101990000D4601D084F0004440F2FF7724F000406F
:1019A000284303D0C4F30A50B84212D1FFF762F8BB
:1019B000C0F80090C4F30A50B8420AD1AE48784447
:1019C000D0E90010C6E9001004F00041084370603F
:1019D00069E7C6E9005466E72DE9FF4F1F464FF05F
:1019E000000A4FF0FF38454691B0D7E90146CDF8DF
:1019F0003CA0FFF73BF8C0680168405C1090B969F3
:101A000012986D1C8847396A814688470028F6D1AC
:101A1000B9F1FF3F0AD0002E24F4D06411DDB9F1F2
:101A20002B0F08D0B9F12D0F0BD102E0404615B0B5
:101A30003AE744F48064B96912986D1C8847761EB1
:101A40008146600504A901D52D2000E02B20002E41
:101A500001F1010B0DF130088DF810003FDDB9F1F7
:101A6000690F08D0B9F1490F05D0B9F16E0F02D056
:101A7000B9F14E0F1CD13B4601A8009580E85002F9
:101A8000DDE912126FF0020005F04CFDC11CCED151
:101A90000EE0B96912986D1C884781461398761E2E
:101AA00044F4007405600F98401C002E0F9016DD62
:101AB000B9F1300FEDD0B9F1780F02D0B9F1580F6C
:101AC0000DD10F9801280AD13B46CDE90054DDE93C
:101AD0001212001F029605F023FDC11CA7D1109918
:101AE00089453ED144F0800406E01399681CAAF1B0
:101AF000010A44F400740860B9696D1C1298761EDE
:101B0000884730288146F0D02BE01099894505D1CF
:101B1000200603D4761E44F0800418E0484602F004
:101B2000A9F908B3761E0DF123018B4544F4007426
:101B300008D2A9F130000BF8010B200607D5AAF155
:101B4000010003E0200602D40AF101008246A0054C
:101B500002D51399681C0860B96912986D1C8847F2
:101B60008146002ED1DC53E0002E51DDB9F1650F26
:101B700002D0B9F1450F4BD1A00549D5B9696D1C0B
:101B80001298761E24F440748847002E81460CDD9E
:101B90002B2804D0B9F12D0F07D144F48074B96912
:101BA00012986D1C8847761E8146E00501D52D21CF
:101BB00000E02B2108F8011BCDF8008021E0761E03
:101BC0000DF13901884544F400740CD2A9F13000BC
:101BD00010F0FF0088F8000002D10099884509D96B
:101BE00008F1010806E0E00501D5244801E042F2D1
:101BF0000F708246B96912986D1C88478146139808
:101C00000560002E04DD484602F034F90028D6D1E4
:101C1000F96912988847FF2053468BF8000088F82E
:101C2000000000200A900B9004AA0CA90AA8FFF754
:101C3000D5FDA00502D46FF00100F8E614F0240FE2
:101C40000AD0E00714D13868DDE90A12031D3B60B1
:101C50000068C0E900120BE00AA9684602F09CF88F
:101C6000E00705D13868009A011D396000680260FC
:101C70002846DCE654A100004AA00000F1D8FFFF8E
:101C80000446AFF300802046FEF723FB002801D076
:101C900002F05AB97047000010B5002102A000F010
:101CA0003BF8012010BD0000534947414252543ACD
:101CB0002041626E6F726D616C207465726D696E29
:101CC0006174696F6E00000010B5012805D0002115
:101CD00003A000F021F8012010BD09A1F8E70000E1
:101CE00053494752544D454D3A204F7574206F6605
:101CF0002068656170206D656D6F7279000000006D
:101D00003A2048656170206D656D6F727920636F50
:101D1000727275707465640070B505460C460A20D1
:101D200000E06D1C02F012F935B128780028F8D1D6
:101D300002E0641C02F00AF914B120780028F8D1FE
:101D4000BDE870400A2002F001B900002DE9FF4F04
:101D50001F464FF03C0987B04FF00042DDE91410F8
:101D600001F10108DDF858A002EA4050039000207C
:101D700004908346054604460590B969461E0898B6
:101D80008847AAF1010A0290BAF1000F37DD0298E4
:101D90002E2815D01021FFF7EDFB00282ADB4FF08D
:101DA000010B0499014316D0B9F1000F0BDB4A4631
:101DB000C11700F0F1F905430C43A9F1040905E04E
:101DC0000120059007E008B145F0010501200490CD
:101DD000059800B9361DB969089808F101088847C7
:101DE000BBF1000FAAF1010A0290CDD00999C1F808
:101DF0000080C9E70298702808D0502806D0F969F9
:101E000008988847BBF1000F14D04FE000200290E3
:101E10000120BBF1000F049009D0B969089808F1BE
:101E200001088847AAF10109B9F1000F07DCF96937
:101E3000089888476FF001000BB0BDE8F08F2B28A1
:101E400004D02D280CD14FF0FF300490B9690898C8
:101E500008F101088847A9F10109B9F1000FE6DD91
:101E6000411CE4D00A21FFF785FB0028DFDB029943
:101E700008F1010801EB810100EB41000290B96912
:101E8000089888470A21FFF775FB099AA9F101090B
:101E9000B9F1000FC2F8008001DD0028E7DAF96926
:101EA000089888470499029800FB016655EA0400E7
:101EB00004D004F04041090002D006E0039898E005
:101EC000A40044EA9574AD00B61E04F00041080079
:101ED00002D16D196441761E159810F0240F03D0BD
:101EE0004FF00B095C4803E04FF028096FF07D00CC
:101EF0008246564507DAAAEB06018944B9F1410F3B
:101F000001DD4FF0410901200021A9F1010200F09B
:101F100043F9024628400B462140084301D00121E5
:101F200000E00021501E029143F1FF312840214082
:101F3000084301D0012000E000200299834651EAC5
:101F40000B014FD0002108464FF00000039900F428
:101F5000400039B100EB80004FF4400100EBD0703D
:101F600001EA60008015012802DD4FF0FF3000E03B
:101F700013D0401C36D0029860B3BBF1000F0CD1D7
:101F80004A460120002100F007F92840214008437B
:101F900001D0012000E00020E0B101204A460021EC
:101FA00000F0FAF8034640190A4661412D1A8C41A7
:101FB00011D3B9F1400F09DD159810F0240F02D0AC
:101FC000AAF1340603E0AAF1170600E0761C00250A
:101FD0004FF0004406E05B1E42F1FF3220EA0305A9
:101FE00021EA0204CAF10100B04206DA1B49039853
:101FF00008430190002000900EE0039AC4F3D3211F
:10200000E80A0A43164940EA44500A433146CDE9FA
:102010000002684601F024FF159810F0240F0BD041
:102020001598C00715D13868DDE90012031D3B6023
:102030000068C0E900120CE002A8694601F0ACFE9D
:102040001598C00705D13868029A011D39600068EB
:1020500002604046F0E6000002FCFFFF0000F07F57
:102060000000F03F2DE9FF4F92461D4685B04FF02E
:102070000041DDE9124BDDE914727F1E01EA4B508D
:10208000414940F0FF4940EA0108002122F02000C8
:102090004928049102D04E2828D04CE03BA00126CC
:1020A00007C88DE80700A9690698641C88477F1E49
:1020B000014606D41DF8060018B121F02001814226
:1020C0000BD0E96906988847032E34D0082E32D009
:1020D0006FF0010009B0BDE8F08F761C032E01D02F
:1020E000082EE0D1601CCAF80000DCE7A969069858
:1020F000641C88477F1E2AD420F02000412826D166
:10210000A9690698641C88477F1E20D420F020000F
:102110004E281CD1A9690698641C88477F1E48F484
:10212000002849F48009CAF8004001D4282806D0C4
:10213000E969069888475FEACB7012D022E0A96966
:102140000698641C88477F1E01D4002803DAE969D9
:1021500006988847BCE72928F1D1641CCAF80040DA
:10216000E9E71BF0240F07D028680499031D2B60B2
:102170000068C0E9001805E02868021D2A600068B0
:10218000C0F800902046A5E70000F07F494E464980
:102190004E49545900000000B2F120030AD5C2F1A3
:1021A000200301FA02F120FA03F300FA02F041EAF7
:1021B0000301704700FA03F14FF0000070475FEA37
:1021C000400C08BF91F0000F4FEA8C234FEAC12268
:1021D00043EA51514FEA1C5018BF00F5F0404FEA56
:1021E000300018BF41F000415FEA6C5C00F02980CC
:1021F000BCF1FF3F08BF40F080407047130C06BFA2
:1022000012044FF0100C4FF0000C130E04BF12021A
:102210000CF1080C130F04BF12010CF1040C930F06
:1022200004BF92000CF1020CD30F04BF52000CF15A
:10223000010C11464FF00002A0F11F00A0EB0C00B2
:10224000704711F0004F08BF704731F000413FF474
:10225000D5AF0B0C06BF09044FF0100C4FF0000C6B
:102260000B0E04BF09020CF1080C0B0F04BF09018F
:102270000CF1040C8B0F04BF89000CF1020CCB0F86
:1022800004BF49000CF1010CCCF12003A0EB0C00C1
:1022900022FA03F302FA0CF241EA030100F1010011
:1022A000704720F07F4C80EA030023F07F47ACEBBF
:1022B000070303F57C5300F0004003F1FF032DE911
:1022C00080494FEA154B09B44FEA144325EA0B4EF7
:1022D00024EA03480FF2042606EB132749083E7848
:1022E0005FEA320203FB0667C7F5000707FB06F645
:1022F0004FEA54374FEAD64606F1020607FB066C52
:10230000CCF1005C4FEA1C472CEA074C07FB06F4B3
:102310000CFB06F504EB15464FEA961634BF002079
:102320004FF000404FEAD13706FB07FC4FEA1C4C48
:102330000CFB0BF7D21B03FB0CF761EB07010CFB4B
:102340000EF7B0EB074072EB17420CFB08F734BFF7
:10235000A2EB0742B2EB074261EB17414FEA0C4494
:102360004FEA910706FB07FC4FEA1C4C0CFB0BF7EE
:10237000B0EBC74072EB573203FB0CF734BFA2EB54
:10238000C742B2EBC74261EB57310CFB0EF7B0EB23
:10239000C70072EB57720CFB08F734BFA2EBC70201
:1023A000B2EBC70261EB5771039F4FEA816141EACB
:1023B000921104EBCC044FEAD1374FEA826206FB5C
:1023C00007FC42EA90124FEA80604FEA1C4C0CFB7B
:1023D0000BF7D21B03FB0CF761EB07010CFB0EF7AD
:1023E000B0EB074072EB17420CFB08F734BFA2EBCF
:1023F0000742B2EB074261EB17414FEA8C554FEAB7
:10240000910704EB9C2406FB07FC4FEA1C4C0CFBD9
:102410000BF7B0EBC74072EB573203FB0CF734BF3E
:10242000A2EBC742B2EBC74261EB57310CFB0EF790
:10243000B0EBC70072EB57720CFB08F734BFA2EB8E
:10244000C702B2EBC70261EB577115EB4C254FEA9F
:10245000816141EA92114FEA82624FEAD13742EA42
:10246000901206FB07FC44F100044FEA80604FEA3B
:102470001C4C0CFB0BF7D21B03FB0CF761EB0701A9
:102480000CFB0EF7B0EB074072EB17420CFB08F7A2
:1024900034BFA2EB0742B2EB074261EB174115EBE9
:1024A0001C154FEA813141EA92414FEA823242EAF9
:1024B00090424FEA80304FEA0C7644F1000448EA3B
:1024C00003434EEA0B484FF0000EB2EB080C71EBE1
:1024D000030724BF624639464EEB0E0E4FF0000B49
:1024E0000018524149414BEB0B0BB2EB080C71EB5E
:1024F00003077BF1000B24BF624639464EEB0E0EFC
:102500004FF0000B0018524149414BEB0B0BB2EB63
:10251000080C71EB03077BF1000B24BF62463946C0
:102520004EEB0E0E51EA020718BF46F0010616EBFD
:102530000E7655F1000254F1000103D5BDE8890182
:10254000BDE80088BDE88901BDE80048B6195241E0
:1025500041EB0101A3F10103704780807F7E7D7C08
:102560007B7A7978777676757473727171706F6E25
:102570006E6D6C6C6B6A6A696868676666656464D0
:10258000636362616160605F5F5E5E5D5D5C5C5B5A
:102590005B5A5A59595858575756565555555454C9
:1025A000535352525251515050504F4F4F4E4E4D27
:1025B0004D4D4C4C4C4B4B4B4A4A4A494949484873
:1025C00048474747474646464545454444444443B3
:1025D00043434342424242414141000046EA0646EB
:1025E000A3F570534FEA164646EA42564FEAD22206
:1025F00042EA415210B54FEAD121A3F1010300F0A4
:1026000017F820F0004000F1010C00F0004701EB4A
:1026100000501146BCF5006F40EA070000D210BD23
:1026200002484FF0000140EA070010BD0000F07FB3
:10263000002B26D4770021D01CB54FEA370703B40E
:102640004FF010004FF010014FF000000FBCBDE83C
:1026500010400BF1010BBBF1010F08BF5FEA170738
:1026600022BF12F1010211F101014FF0004143F1CB
:10267000000300F0004043EA00007047F9D3570818
:10268000DAE746EA064613F1400F4FEA16461FDD29
:1026900013F1200FDFBF16430A46002120335B42AF
:1026A000C8D0C3F1200746EA064602FA07F74FEA08
:1026B000164646EA0706C3F1200722FA03F201FA9A
:1026C00007F721FA03F14FF0000342EA0702B1E7EE
:1026D00046EA020646EA06464FEA164646EA01067A
:1026E000BCBF46EA0646360C4FF000034FF000022E
:1026F0004FF000019EE72DE9C048934630B491E8C1
:10270000380007C831EA400C48BF34EA430C03D50F
:10271000FFF7C7FDFFF78CFFF0BCBDE800882DE98F
:10272000C048934630B491E8380007C831EA400CFD
:1027300048BF34EA430C03D5FFF7B3FDFFF74EFF64
:10274000F0BCBDE800882DE9C048934630B491E85C
:10275000380007C810F0804F08BF13F0804F03D136
:1027600000F019F8FFF764FFF0BCBDE800882DE920
:10277000C048934630B491E8380007C810F0804F45
:1027800008BF13F0804F03D100F005F8FFF726FFD4
:10279000F0BCBDE8008820F07F4780EA030023F00A
:1027A0007F4C07EB0C03A3F57C5300F00040A3F132
:1027B000FE0392F0000F00F0B38095F0000F00F0E0
:1027C00077802DE901494FEA11404FEA144621EA8A
:1027D000004800FB06FC24EA064708FB06F607FB58
:1027E00008F800FB07F718EB06484CEB164C4FEACD
:1027F000124B18EB07484FEA15464CEB174022EAFC
:102800000B4E0BFB06FC25EA06470EFB06F607FB04
:102810000EFE0BFB07F71EEB064E4CEB164C4FF073
:1028200000061EEB074E4CEB174B18EB0B0840F164
:10283000000018EB0E0B58EB000840F100008F1A57
:102840004FF000013CBFC943661B14BFB5EB040C3D
:1028500000213CBFC943F61B4FEA17444EEA8E0ED7
:1028600027EA04454FEA1C4704FB07622CEA074CA1
:1028700005FB07F70CFB05F604FB0CFC16EB074603
:1028800042EB174216EB0C4642EB1C421BEB0606D2
:1028900058EB0202414146EA9E0601D5BDE8018996
:1028A000B619524141EB0101A3F10103BDE80189D1
:1028B0004FEA14454FEA114724EA054621EA074C3E
:1028C00005FB07F406FB07F70CFB06F105FB0CFC08
:1028D00011EB074144EB17444FEA124711EB0C414F
:1028E00044EB1C4422EA074C05FB07F206FB07F702
:1028F0000CFB06F605FB0CFC16EB074642EB1742F9
:1029000016EB0C4642EB1C456A1854F1000148BF17
:102910007047B619524141EB0101A3F10103704721
:1029200095F0000F37D04FEA11424FEA144721EAE1
:10293000024624EA074C02FB07F106FB07F70CFBF3
:1029400006F402FB0CFC14EB074441EB17414FEA81
:10295000154714EB0C4441EB1C4125EA074C02FBE4
:1029600007F506FB07F70CFB06F602FB0CFC16EB63
:10297000074645EB174516EB0C4645EB1C42121972
:1029800051F1000148BF7047B619524141EB0101B6
:10299000A3F1010370474FEA14454FEA114724EAB7
:1029A000054621EA074C05FB07F106FB07F70CFB80
:1029B00006F24FF0000605FB0CFC12EB074241EB60
:1029C000174112EB0C4251EB1C4148BF7047921863
:1029D00041EB0101A3F101037047000051B18200F6
:1029E000A2F1C042126842F001038200A2F1C0428B
:1029F000136009E08200A2F1C0421268034B1A4042
:102A00008300A3F1C0431A6070470000FEFF0F006F
:102A100030B50021002200230468A400A4F1C044C2
:102A20002168424C2140D0E901452C43C5682C4324
:102A300005692C4345692C4385692C43C5692C43A2
:102A4000056A2C43456A2C43856A2C43C56A2C438E
:102A5000056B2C4321430468A400A4F1C044216009
:102A60008468082C0BD10468A400A4F1C044246835
:102A700044F040050468A400A4F1C0442560046843
:102A8000641CA400A4F1C044226802F04042446BDC
:102A90002468456B6D6844EA0514456BAD6844EAEB
:102AA0000524456BAD8944EA0544456B2D8A44EA0B
:102AB0000554456B2D7D44EA0564456BAD692C4397
:102AC00022430468641CA400A4F1C0442260C46AC8
:102AD000B4F5804F20D10468A400A4F1C044D4F818
:102AE0000431134C2340846B2468856B6D6844EA81
:102AF0000514856BAD6844EA0524856BAD8944EA0D
:102B00000544856BAD692C4323430468A400A4F1FC
:102B1000C044C4F8043107E06FF070450468A400B5
:102B2000A4F1C044C4F8045130BD00008000F7FF98
:102B30000000F0CF2DE9F04705460E4614469C46AE
:102B40000CB9BDE8F0870C2C00DDFAE72A6868684C
:102B5000A968EB68D5F81080D5F81490BCF1000F87
:102B600049D01F19182F01DA23448AE01F19A7F151
:102B70001803012809D0032807D0052805D0072805
:102B800003D0082801D00A2806D11F2901DA491CE0
:102B900077E00121401C74E0042805D0062803D00A
:102BA000092801D00B2806D11E2901DA491C68E04A
:102BB0000121401C65E0022813D11D290CD01C29DD
:102BC0000DD14FEAE27A02EB9A7A4FEAAA0AA2EB17
:102BD0008A0ABAF1000F02D10121401C51E0491CC0
:102BE0004FE00C284DD11F2901DA491C49E0012191
:102BF0000120521C45E0A34201DB1B1B41E003F115
:102C000018073B1B022809D0042807D0062805D046
:102C1000082803D0092801D00B2806D1012901DD9D
:102C2000491E2EE01F21401E2BE0052805D0072855
:102C300003D00A2801D00C2806D1012901DD491E44
:102C40001FE01E21401E1CE0032811D101290DD1D7
:102C50004FEAE27A02EB9A7A4FEAAA0AA2EB8A0AD0
:102C6000BAF1000F02D11C21401E0AE0491E08E003
:102C7000012806D1012901DD491E02E01F210C2097
:102C8000521E02F26C773760471C7760B160F360C8
:102C9000C6F81080C6F8149000BF52E7F0B50A4697
:102CA00000210023002400BF3DE0012505FA01F3C7
:102CB000156805EA03049C4234D105684F000326D9
:102CC000BE40B543056015794E00B54006683543F2
:102CD00005601579012D02D01579022D16D1856870
:102CE0004F000326BE40B543856055794E00B54080
:102CF000866835438560456801268E40B54345604A
:102D0000456896798E40B6B235434560C5684F0038
:102D10000326BE40B543C560D5794E00B540C668B0
:102D20003543C560491C1029BFD3F0BDF0B5002361
:102D300000244D07ED0E02FA05F3CE1000F1200538
:102D400055F826504E07F70E0F26BE40B543CF105C
:102D500000F1200646F82750CE1000F1200555F866
:102D6000265045EA0304CE1000F1200545F8264020
:102D7000F0BD4183704701837047000010B5002407
:102D80000021084600F024FB2C2000F055FB00BF7A
:102D900004E00448808904490880641CB4F5163FA7
:102DA000F7D310BDE006002000000260014607E0F6
:102DB000002001E0421C90B241F288329042F9DBDF
:102DC0000A00A1F1010399B2F2D1704700B50246A1
:102DD0002F480274007C58BB362000F02DFB2820C1
:102DE00000F024FB2A2000F027FB002000F01EFB4F
:102DF000002000F01BFB012000F018FBDF2000F09A
:102E000015FB2B2000F018FB002000F00FFB00202A
:102E100000F00CFB012000F009FB3F2000F006FB56
:102E20004FF4F0701A4948804FF4A07088802EE06B
:102E30001748007C01282AD1362000F0FDFA4820EE
:102E400000F0F4FA2A2000F0F7FA002000F0EEFA81
:102E5000002000F0EBFA012000F0E8FA3F2000F03B
:102E6000E5FA2B2000F0E8FA002000F0DFFA00205D
:102E700000F0DCFA012000F0D9FADF2000F0D6FAE9
:102E80004FF4A070024948804FF4F070888000BD74
:102E9000E006002000B597B00121084600F044FB91
:102EA0000020109011900320129000201390149095
:102EB000159016900190029003901020049000202D
:102EC000059007900690089009904FF480500A9062
:102ED00000200B904FF480400C9000200D9010A823
:102EE0000F9001A8FFF794FD01210020FFF776FD68
:102EF00017B000BD1CB501211C2000F005FB02200D
:102F00008DF8040000208DF8060003208DF80500E0
:102F100001208DF807008020009069468248FFF765
:102F2000BDFE0C2207218048FFF700FF4FF4006030
:102F3000009069467C48FFF7B1FE0C220B217A48CD
:102F4000FFF7F4FE2020009069467748FFF7A6FEC1
:102F50000C2205217448FFF7E9FE10200090694615
:102F60007148FFF79BFE0C2204216F48FFF7DEFE3D
:102F70004FF48040009069466B48FFF78FFE0C22AB
:102F80000E216948FFF7D2FE4FF4004000906946D9
:102F90006548FFF783FE0C220F216348FFF7C6FE4A
:102FA0000120009069466048FFF778FE0C2200215E
:102FB0005D48FFF7BBFE0220009069465A48FFF7C4
:102FC0006DFE0C2201215848FFF7B0FE80200090D2
:102FD00069465648FFF762FE0C2207215348FFF767
:102FE000A5FE4FF48070009069465048FFF756FEEA
:102FF0000C2208214D48FFF799FE4FF40070009015
:1030000069464A48FFF74AFE0C2209214748FFF764
:103010008DFE4FF48060009069464448FFF73EFE05
:103020000C220A214148FFF781FE4FF40060009016
:1030300069463E48FFF732FE0C220B213B48FFF762
:1030400075FE4FF48050009069463848FFF726FE21
:103050000C2211463548FFF769FE4FF400500090EE
:1030600069463248FFF71AFE0C220D212F48FFF760
:103070005DFE4FF48040009069462C48FFF70EFE3D
:103080000C220E212948FFF751FE4FF4004000901A
:1030900069462648FFF702FE0C220F212348FFF75E
:1030A00045FE4FF48070009069461F48FFF7F6FD1B
:1030B0000C2208211C48FFF739FE4FF400700090E5
:1030C00069461948FFF7EAFD0C2209211648FFF767
:1030D0002DFE4FF48060009069461348FFF7DEFD37
:1030E0000C220A211048FFF721FE01208DF8040070
:1030F00000208DF806008DF8050001208DF80700EE
:103100000420009069460A48FFF7C8FD4FF480503C
:10311000009069460448FFF7C1FD4FF48051024812
:10312000FFF729FE1CBD0000000C02400010024009
:103130000008024010B5FFF7DDFEFFF7ABFE0421EB
:103140008548FFF716FE1E20FFF730FE0421824857
:10315000FFF711FE1E20FFF729FED32000F06CF9C7
:1031600000F008F97D49088000F004F97B490880E7
:1031700000F000F979490880084600884FF6FF7191
:1031800001EA00207549088000F0F4F873490988C5
:103190000843724908800846018871A0FDF73AF992
:1031A0006E48008849F28841884201D000BFFEE79E
:1031B000E02000F041F9002000F038F9032000F091
:1031C00035F90C2000F032F9092000F02FF9172012
:1031D00000F02CF9092000F029F93E2000F026F932
:1031E000892000F023F9492000F020F9082000F0A0
:1031F0001DF90D2000F01AF90A2000F017F913202C
:1032000000F014F9152000F011F90F2000F00EF96C
:10321000E12000F011F9002000F008F9112000F081
:1032200005F9152000F002F9032000F0FFF80F2047
:1032300000F0FCF8052000F0F9F82D2000F0F6F879
:10324000342000F0F3F8412000F0F0F8022000F004
:10325000EDF80B2000F0EAF80A2000F0E7F8332040
:1032600000F0E4F8372000F0E1F80F2000F0DEF87D
:10327000C02000F0E1F8172000F0D8F8152000F089
:10328000D5F8C12000F0D8F8412000F0CFF8C520D3
:1032900000F0D2F8002000F0C9F8122000F0C6F8C3
:1032A000802000F0C3F8362000F0C6F8482000F077
:1032B000BDF83A2000F0C0F8552000F0B7F8B02073
:1032C00000F0BAF8002000F0B1F8B12000F0B4F836
:1032D000A02000F0ABF8B42000F0AEF8022000F01F
:1032E000A5F8B62000F0A8F8022000F09FF8022010
:1032F00000F09CF8E92000F09FF8002000F096F81C
:10330000F72000F099F8A92000F090F8512000F083
:103310008DF82C2000F08AF8822000F087F8112028
:1033200000F08AF8782000F033FE292000F084F8BD
:10333000002000F025F86FF07F4000F035F80C48D1
:1033400000F068F8012000F06BF80020FFF73EFD68
:10335000FFF714FD10BD000000080240E006002049
:10336000204C43442049443A494C4925780D0A00F1
:10337000300000200149088870470000000002600A
:1033800030B500230021002200F47804230A00F461
:103390007C446109C0F3C40243EA01041443014DB3
:1033A000EC6030BDE006002030B500230021002293
:1033B00000F47804230A00F47C446109C0F3C402D9
:1033C00043EA01041443014DAC6030BDE006002027
:1033D00000B502460B462A2000F02EF8101200F02D
:1033E00025F8D0B200F022F8012000F01FF8DF200D
:1033F00000F01CF82B2000F01FF8181200F016F84F
:10340000D8B200F013F8012000F010F8DF2000F02F
:103410000DF800BD01490860704700002000002041
:103420000149487470470000E00600200149088007
:1034300070470000000002604FF0C04108807047F4
:103440001CB50121042000F05FF801208DF8040074
:1034500000208DF8060001208DF8070000208DF86F
:1034600005000120009069460348FFF717FC012181
:103470000148FFF77EFC1CBD0008024070B500212A
:1034800000230F22C4781CB3174C246804F4E064B2
:10349000C4F5E064C4F30721C1F10404E3B20A41B6
:1034A00044789C40E1B28478144021430C07210EFB
:1034B0000E4C05786155047804F01F050124AC40DA
:1034C00005786D11AD0005F1E025C5F8004109E072
:1034D000047804F01F050124AC40054D06787611F0
:1034E00045F8264070BD00000CED00E000E400E06F
:1034F00080E100E002490143024A11607047000088
:103500000000FA050CED00E029B1064A12680243FA
:10351000044B1A6004E0034A12688243014B1A60AC
:10352000704700003038024029B1064A1268024351
:10353000044B1A6004E0034A12688243014B1A608C
:10354000704700003838024029B1064A1268024329
:10355000044B1A6004E0034A12688243014B1A606C
:103560007047000044380240F0B5002100220024DA
:10357000022500260223324F3F6807F00C0121B1DB
:10358000042905D0082937D105E02E4F076036E021
:103590002D4F076033E02A4F3F1F3F68C7F3805627
:1035A000274F3F1F3F6807F03F036EB1264FB7FB21
:1035B000F3F7DFF88CC0ACF1040CDCF800C0CCF3FE
:1035C000881C07FB0CF40CE01E4FB7FBF3F7DFF889
:1035D00070C0ACF1040CDCF800C0CCF3881C07FB15
:1035E0000CF4174F3F1F3F68C7F301477F1C7D0056
:1035F000B4FBF5F7076002E0124F076000BF00BFA1
:103600000F4F3F6807F0F0010909104F7A5C076817
:10361000D74047600A4F3F6807F4E051890A0B4FD3
:103620007A5C4768D7408760054F3F6807F4604180
:10363000490B064F7A5C4768D740C760F0BD000071
:10364000083802400024F40000127A00050000202F
:103650000CB50020019000903448006840F48030A0
:103660003249086000BF3148006800F40030009023
:103670000198401C0190009818B90198B0F5A04F2E
:10368000F1D12A48006800F4003010B10120009008
:1036900001E0002000900098012846D123484030E6
:1036A000006840F08050214940310860204800689F
:1036B00040F440401E4908601C48083000681B491F
:1036C000083108600846006840F400400860084679
:1036D000006840F4A05008601648091F0860081FE1
:1036E000006840F08070091F086000BF0F48006844
:1036F00000F000700028F9D040F205700E49086013
:103700000A480830006820F00300084908310860C2
:103710000846006840F00200086000BF0348083017
:10372000006800F00C000828F8D10CBD00380240F9
:103730000070004008544007003C0240042808D1B3
:103740004FF0E021096941F004014FF0E0221161DE
:1037500007E04FF0E021096921F004014FF0E02279
:103760001161704710B51548006840F470001349A6
:1037700008601348006840F001001149086000200B
:103780000F49083108600E4800680E4908400C498E
:1037900008600D48091D0860081F006820F480209B
:1037A000091F0860002006490C310860FFF750FF30
:1037B0004FF0006001498039086010BD88ED00E0DD
:1037C00000380240FFFFF6FE1030002410B5ADF5C2
:1037D0001E7D40F22551364800F0A4F8002864D040
:1037E000334800F059F9C4B23248334909684454A7
:1037F00031480068401C3049086008460068B0F550
:10380000807F05D101202D49087000202A490860D9
:103810002A480078012848D10302264A28496846E8
:1038200000F0AAF94FF41E7269462648FDF7AAF87F
:103830002448D0F87821D0F8741123A0FCF7EAFDD1
:103840002048406A01280CD11E4890ED101BB0EEB4
:10385000410AF0EE610A53EC102B26A0FCF7DAFDCA
:1038600020E01848406A02280CD1164890ED101B41
:10387000B0EE410AF0EE610A53EC102B1FA0FCF7EA
:10388000C9FD0FE00F48406A03280BD10D4890EDA9
:10389000101BB0EE410AF0EE610A53EC102B19A098
:1038A000FCF7B8FD0020054908700DF51E7D10BD20
:1038B00000100140A80000200000002004000020AB
:1038C00020040020A8010020D5FDD4DACAB9D3C352
:1038D000B5C4B1B1B6B7CEC0D0C7A3BA25642CBFAA
:1038E000C9BCFBB1B1B6B7CEC0D0C7A3BA25640D71
:1038F0000A000000313A25660D0A0000323A2566BA
:103900000D0A0000333A25660D0A000021B18289B4
:1039100042F40052828104E082894DF6FF731A401E
:103920008281704770B502460024002300250020E4
:1039300040F66A16B14200D100BFC1F3421501F052
:103940001F03012606FA03F3012D02D196893340A5
:1039500006E0022D02D1168A334001E0968A3340F8
:103960000C12012606FA04F41688344013B10CB187
:10397000012000E0002070BDF0B5034600240026C1
:103980000025002040F66A17B94200D100BF184652
:10399000C1F3421401F01F06012707FA06F5012CB6
:1039A00001D10C3004E0022C01D1103000E01430C1
:1039B0001AB107682F43076002E00768AF4307604A
:1039C000F0BD00002DE9FF4705460E460024A14644
:1039D00000BFA046B08900B100BF2C8A24F4405437
:1039E000F08804432C82AC8941F20C608443B08897
:1039F00031890843718908430443AC81AC8A24F4BB
:103A00004074B0890443AC826846FFF7ADFD20489E
:103A1000854202D01F48854202D1DDF80C9001E0BA
:103A2000DDF80890A88900F4004040B109EBC90016
:103A300000EB091031684900B0FBF1F707E009EB32
:103A4000C90000EB091031688900B0FBF1F7642070
:103A5000B7FBF0F004012009642101FB1078A8896C
:103A600000F4004040B1322000EBC800B0FBF1F0A0
:103A700000F00700044308E0322000EB0810642146
:103A8000B0FBF1F000F00F0004432C81BDE8FF878C
:103A9000001001400014014001468888C0F308006E
:103AA0007047000070B505460E4608A0FCF7B2FC52
:103AB000002405E0295D07A0FCF7ACFC601C84B283
:103AC000B442F7DB04A0FCF7A5FC70BD4572726F31
:103AD000723A0000256300000D0A000070B505462B
:103AE0000E4608A0FCF796FC002405E0295D07A01F
:103AF000FCF790FC601C84B2B442F7DB04A0FCF736
:103B000089FC70BD54726163653A00002563000052
:103B10000D0A000070B505460E4608A0FCF77AFCB9
:103B2000002405E0295D07A0FCF774FC601C84B24A
:103B3000B442F7DB04A0FCF76DFC70BD496E666F04
:103B40003A000000256300000D0A000010B504468D
:103B500002F084FD0549016002F080FD04494160E6
:103B600002F07CFD0349816010BD0000DD3A0008D1
:103B7000A53A0008153B00082DE9F04107460C4620
:103B800015461E462046FFF7E1FF204602F08FFE55
:103B900004F51E7002F08AFA23463246294604F5DF
:103BA0001E7001F0F3F904F52471204601F0D7F8F6
:103BB0000123082204F52871201DFEF7BBFF1C22FB
:103BC00004F52871201DFCF7DDFE94EDA41BB0EE7A
:103BD000410AF0EE610A9FED131B53EC112B51ECDF
:103BE000100B03F005FAC4E9100194EDA61BB0EE2A
:103BF000410AF0EE610A9FED0B1B53EC112B51ECC7
:103C0000100B03F0F5F9C4E9120104F51E7002F07F
:103C1000D7F94FF41E7221463846FCF7B3FEBDE8D3
:103C2000F08100006666666666A64C40704703B485
:103C300001984100009850EAC12018BF04204A0DA5
:103C400018BF40F0010040F2FF72B2EB515F08BFB5
:103C500040F00200012808BF052002B070470000B4
:103C600030B540F2FF742DED048BF0EE608A18EE53
:103C7000901A85B0B0EE408A9FED2B9B05468DEDE6
:103C8000008B34EA115147D053EC192B51EC180B2F
:103C900003F0F0F840D02A4651EC180B03F010FC6A
:103CA00041EC180B18EE900A8DED008B34EA1050A1
:103CB0001CD053EC192B51EC180B03F0DBF82BD173
:103CC0000220FCF72EFF00F057F810EE901A18EEC5
:103CD000900A8DED020B8DED008B61F31E000390B9
:103CE0009DED020B05B0BDEC048B30BD0220FCF74E
:103CF00018FF00F031F810EE901A18EE900A8DEDD2
:103D0000020B8DED008B61F31E0003909DED020B05
:103D100005B0BDEC048B30BD05B0B0EE480AF0EE46
:103D2000680ABDEC048B30BD0000000000000000FC
:103D300000B583B09FED060B0A4601468DED000BE2
:103D40006846FDF711FB9DED000B03B000BD0000C0
:103D500000000000000000009FED050B10B553ECC3
:103D6000102B51EC100B03F043F941EC100B10BD7C
:103D700000000000000000709FED050B10B553EC33
:103D8000102B51EC100B03F033F941EC100B10BD6C
:103D9000000000000000001030B504462DED048B3B
:103DA00081B06A4691ED008B51EC180B00F040F9A0
:103DB00000989FED239B7E300090002821DC53EC7F
:103DC000192B51EC180B03F055F81AD0002140F6CE
:103DD00008004FF00000054651EC180B02F004FEFD
:103DE00008EE100A40F6080005EA00014FF0000056
:103DF000B5EEC08AF1EE10FA04BF0220FCF791FE86
:103E000017E00098FF280EDB0220FCF78AFE53EC37
:103E1000192B51EC180B03F0E9F98CBF9FED0A8ABE
:103E20009FED0A8A05E051EC180B02F0DDFD08EE6B
:103E3000100A84ED008A01B0BDEC048B30BD000097
:103E40000000000000000000000080FF0000807FF4
:103E500010B50248FFF7EAFE10BD00002004002064
:103E600010B5044690ED000B0846FFF7F9FE84ED0F
:103E7000000B10BD30380A2801D201207047002005
:103E800070470000FEB506460D4614460027062D75
:103E900006D0082D16D0092D15D00A2D28D113E0F3
:103EA00004F11400011F0B1F17A2CDE900102946D1
:103EB000304602F0D7FB032801D1012000E00020AA
:103EC00007461AE000BF00BF04F11800011F0A1FD7
:103ED000131FCDE9002102900EA22946304602F0C0
:103EE000C1FB042801D1012000E00020074604E0C6
:103EF0000CA000F089FE002700BF00BF0FB100201A
:103F0000FEBD4FF0FF30FBE72532642532642532D9
:103F1000640000002532642532642532642E256455
:103F2000000000005061727365206F662074696D37
:103F300065206572726F722028666F726D617420E1
:103F40006572726F7229210000BF7047014600BF81
:103F50007047000010B504466FF00400FFF7EEFB59
:103F6000E11704EB5171C1F3C701074A1170104604
:103F7000007800EB4001C1EBC0104FF6FF7101EA81
:103F8000C0000249088010BD160000201800002063
:103F900070B504464FF4077094FBF0F0C6B24FF4CE
:103FA000077094FBF0F100FB114085B205E04FF47F
:103FB000077000F009F8701EC6B2002EF7D115B1D7
:103FC000284600F001F870BD0146114A12884A43A4
:103FD0004FF0E0235A6100229A611A46126942F0BA
:103FE00001021A6100BF4FF0E022106900F00102E7
:103FF0001AB100F48032002AF5D04FF0E0221269A5
:1040000022F001024FF0E0231A6100229A6170470A
:104010001800002000BF054A128802F04002002A62
:10402000F9D0C2B2014B9A807047000000100140E5
:1040300010B582B01446CDE900010023009A236038
:10404000194B21F0004098422ADA024328D0B0F5FB
:10405000801FA8BF226810DA9FED150B53EC102BC0
:104060009DED000B51EC100B02F0C2FFCDE90001F9
:104070006FF0350221F0004022600F4B6FF31E51AC
:1040800003EB20501044206041F0FF5040F00050FE
:1040900001909DED000B00BF02B051EC100B10BD64
:1040A0009DED000BF8E700000000F07F000000002D
:1040B000000000000000504302FCFFFF4FF4A0602E
:1040C000FFF718FA5420FFF745FF4FF4E13002F0F4
:1040D000FDFB3220FFF75CFFFFF7B2F9FFF72AF88C
:1040E00001210248FEF747FE00BFFEE7000802403C
:1040F0002DE9F04105460C464FF000080DB104B122
:1041000005E040F2EB3221A129A0FCF761FB287801
:10411000606295ED0E0B84ED0A0B95ED100B84EDAE
:104120000C0B95ED120B84ED0E0B002623E00027FF
:104130001BE005F1080050F82600A8B105F10800C1
:1041400050F8261007EB870204F5BE7050F82200E5
:10415000814209D1012107EB870204F5BE7000EB13
:104160008200416008F101087F1C4FF4BC700059C7
:10417000B842DEDC761C0C2ED9DBC4F874812068D2
:1041800040F080002060BDE8F08100002E2E5C44ED
:1041900072697665725C6E6D65615F6465636F649C
:1041A000655C7372635C70617273652E63000000FE
:1041B0007061636B20262620696E666F0000000028
:1041C0002DE9F04104460D460CB105B105E040F281
:1041D000C73236A13EA0FCF7FBFAD4E900108842B2
:1041E00004DC0C216068B1EB800F01DABDE8F081DE
:1041F0006068012801DA012060604FF4BC70A1689A
:1042000041516068401E4FEA800808F10400A1682F
:10421000814203DAA068A0EB080000E00420804699
:1042200000263AE06068401E06EB800706EB860138
:1042300004F10C0050F8211007EB870205F5BE7061
:1042400040F8221006EB860104F10C0000EB81001F
:1042500007EB8702816805F5BE7000EB8200816084
:1042600006EB860104F10C0000EB810007EB8702EE
:10427000C16805F5BE7000EB8200C16006EB8601E7
:1042800004F10C0000EB810007EB8702016905F5E2
:10429000BE7000EB82000161761C4645C2DB2868D7
:1042A00040F04000286000BFA0E700002E2E5C44D4
:1042B00072697665725C6E6D65615F6465636F647B
:1042C000655C7372635C70617273652E63000000DD
:1042D0007061636B20262620696E666F0000000007
:1042E00070B504460D460CB105B105E040F24D3203
:1042F00021A12AA0FCF76CFAE168296121696961B2
:104300006169A961A169E961E06B286294ED120B12
:1043100085ED0C0B94ED140B85ED140B94F828002F
:104320004E2802D1D4E9080109E094ED081BB0EE53
:10433000410AF0EE610A51EC100B02F049FBC5E9AD
:10434000100194F83800452802D1D4E90C0109E0A5
:1043500094ED0C1BB0EE410AF0EE610A51EC100B2B
:1043600002F036FBC5E91201206CE867286840F4CA
:104370008050286070BD00002E2E5C447269766506
:10438000725C6E6D65615F6465636F64655C7372BA
:10439000635C70617273652E630000007061636B13
:1043A00020262620696E666F0000000070B5054665
:1043B0000C460DB104B105E040F2A33227A130A0B4
:1043C000FCF706FA95F83800412809D1206A08B9A7
:1043D00002202062606A01280AD10220606207E0A0
:1043E00095F83800562803D1002020620120606231
:1043F000287A4E2802D1D5E9000109E095ED001B8D
:10440000B0EE410AF0EE610A51EC100B02F0E0FA56
:10441000C4E91001287E452802D1D5E9040109E04C
:1044200095ED041BB0EE410AF0EE610A51EC100B61
:1044300002F0CEFAC4E91201A96A2161E96A616158
:10444000296BA161696BE16195F8390084F8780006
:10445000206840F40070206070BD00002E2E5C4487
:1044600072697665725C6E6D65615F6465636F64C9
:10447000655C7372635C70617273652E630000002B
:104480007061636B20262620696E666F0000000055
:1044900070B505460C460DB104B105E04FF45972F4
:1044A00031A13AA0FCF794F9287F412809D1206A6C
:1044B00008B902202062606A012809D102206062E6
:1044C00006E0287F562803D1002020620120606288
:1044D0001C222946201DFCF755FA95F828004E2885
:1044E00002D1D5E9080109E095ED081BB0EE410ABB
:1044F000F0EE610A51EC100B02F06AFAC4E9100107
:1045000095F83800452802D1D5E90C0109E095ED70
:104510000C1BB0EE410AF0EE610A51EC100B02F0F8
:1045200057FAC4E9120195ED100B84ED160B95EDC9
:10453000101BB0EE410AF0EE610A9FED181B53EC20
:10454000112B51EC100B02F053FDC4E9180195ED4D
:10455000120B84ED1A0B95F8590084F87800206846
:1045600040F40060206070BD2E2E5C447269766558
:10457000725C6E6D65615F6465636F64655C7372C8
:10458000635C70617273652E630000007061636B21
:1045900020262620696E666F000000006F1283C01F
:1045A000CAA1FD3F70B505460C460DB104B105E04A
:1045B0004FF461720EA117A0FCF70AF995ED000BFC
:1045C00084ED1A0B95ED040B84ED1C0B95ED080B97
:1045D00084ED160B95ED0C0B84ED180B95F8390056
:1045E00084F87800206840F48060206070BD00008E
:1045F0002E2E5C4472697665725C6E6D65615F64D7
:1046000065636F64655C7372635C70617273652E61
:10461000630000007061636B20262620696E666F60
:104620000000000070B505460C460DB104B105E070
:1046300040F2963206A10FA0FCF7CAF81C222946C8
:10464000201DFCF79FF9206840F48070206070BD49
:104650002E2E5C4472697665725C6E6D65615F6476
:1046600065636F64655C7372635C70617273652E01
:10467000630000007061636B20262620696E666F00
:104680000000000070B504460D460CB105B105E010
:1046900040F2AB2220A129A0FCF79AF8E168296139
:1046A000216969616169A961A169E961E06B2862B9
:1046B00094ED120B85ED0C0B94ED140B85ED140BA2
:1046C00094F828004E2802D1D4E9080109E094EDBD
:1046D000081BB0EE410AF0EE610A51EC100B02F03B
:1046E00077F9C5E9100194F83800452802D1D4E9DA
:1046F0000C0109E094ED0C1BB0EE410AF0EE610AEA
:1047000051EC100B02F064F9C5E91201286840F081
:104710000100286070BD00002E2E5C447269766531
:10472000725C6E6D65615F6465636F64655C737216
:10473000635C70617273652E630000007061636B6F
:1047400020262620696E666F000000002DE9F041EA
:1047500005460C464FF000080DB104B105E040F2EB
:10476000C22220A128A0FCF733F86868606295EDAA
:104770000E0B84ED0A0B95ED100B84ED0C0B95EDF3
:10478000120B84ED0E0B002622E000271BE005F142
:10479000080050F82600A8B105F1080050F82610CE
:1047A00007EB870204F1840050F82200814209D10E
:1047B000012107EB870204F1840000EB82004160D5
:1047C00008F101087F1C80200059B842DFDC761C0C
:1047D0000C2EDADBC4F87C80206840F002002060F8
:1047E000BDE8F0812E2E5C4472697665725C6E6D58
:1047F00065615F6465636F64655C7372635C70615F
:104800007273652E630000007061636B20262620A2
:10481000696E666F000000002DE9F04104460D4608
:104820000CB105B105E040F2FF2235A13DA0FBF738
:10483000CFFFD4E90010884204DC0C216068B1EBA2
:10484000800F01DABDE8F0816068012801DA0120FB
:1048500060608020A16841516068401E4FEA800876
:1048600008F10400A168814203DAA068A0EB080007
:1048700000E00420804600263AE06068401E06EB17
:10488000800706EB860104F10C0050F8211007EBBD
:10489000870205F1840040F8221006EB860104F13E
:1048A0000C0000EB810007EB8702816805F18400B2
:1048B00000EB8200816006EB860104F10C0000EB46
:1048C000810007EB8702C16805F1840000EB8200DC
:1048D000C16006EB860104F10C0000EB810007EBE0
:1048E0008702016905F1840000EB82000161761CFA
:1048F0004645C2DB286840F00400286000BFA1E7FD
:104900002E2E5C4472697665725C6E6D65615F64C3
:1049100065636F64655C7372635C70617273652E4E
:10492000630000007061636B20262620696E666F4D
:104930000000000070B505460C460DB104B105E05D
:104940004FF448722DA136A0FBF742FF287F412883
:1049500009D1206A08B902202062606A012809D1C1
:104960000220606206E0287F562803D100202062E2
:10497000012060621C222946201DFCF703F895F8EF
:1049800028004E2802D1D5E9080109E095ED081B61
:10499000B0EE410AF0EE610A51EC100B02F018F88B
:1049A000C4E9100195F83800452802D1D5E90C0179
:1049B00009E095ED0C1BB0EE410AF0EE610A51ECF6
:1049C000100B02F005F8C4E9120195ED101BB0EED2
:1049D000410AF0EE610A9FED161B53EC112B51ECCE
:1049E000100B02F005FBC4E9180195ED120B84EDE4
:1049F0001A0B206840F00800206070BD2E2E5C4429
:104A000072697665725C6E6D65615F6465636F6423
:104A1000655C7372635C70617273652E6300000085
:104A20007061636B20262620696E666F00000000AF
:104A30006F1283C0CAA1FD3F70B505460C46A86839
:104A4000C4F86C021248C4F87002D4F86C0220B9A1
:104A50000F4910A000F060F919E0D4F86C020128A9
:104A600004D10B490FA000F057F910E0D4F86C0204
:104A7000022804D1064910A000F04EF907E0D4F84E
:104A80006C02072803D1024910A000F045F970BD5F
:104A9000F40600204750545854206572726F723AE1
:104AA000202573004750545854207761726E696E08
:104AB000673A2025730000004750545854206E6F09
:104AC000746963653A20257300000000475054580C
:104AD00054207573657220696E666F3A20257300E5
:104AE00070B505460C460DB104B105E040F23E320A
:104AF0000AA113A0FBF76CFE95ED000B84ED1A0BD9
:104B000095ED040B84ED1C0B95ED0C0B84ED180B4F
:104B1000206840F01000206070BD00002E2E5C4424
:104B200072697665725C6E6D65615F6465636F6402
:104B3000655C7372635C70617273652E6300000064
:104B40007061636B20262620696E666F000000008E
:104B500030B52DED028BC1B005460C469FED0F0B15
:104B6000B0EE408AF0EE608AFF2C0FDC2246294628
:104B70006846FBF7C2FE00200DF8040040A9684615
:104B8000FFF7D6F8B0EE408AF0EE608AB0EE480A41
:104B9000F0EE680A41B0BDEC028B30BD00000000B1
:104BA00000000000F0B5C1B005460C4616460027CF
:104BB000FF2C0DDC224629466846FBF79EFE0020AE
:104BC0000DF80400324640A96846FBF7C9FD0746C8
:104BD000384641B0F0BD000010B52DED028BB0EEAF
:104BE000408AF0EE608A9FED060B53EC102B51ECDF
:104BF000180B02F0FDF941EC100BBDEC028B10BD5F
:104C0000399D52A246DF913F0FB430B5ADF2044D4D
:104C100001F024FD4568ADB10DF21440CDF800045B
:104C200040F2FF316846DDF80034DDF81024FBF770
:104C3000D7FB04460020CDF80004002C02DD2146FD
:104C40006846A8470DF2044D30BC5DF814FB000027
:104C50002DE9F04704460F46154604EB07080026E9
:104C6000B1460CB105B104E0AB221EA126A0FBF7B2
:104C7000AFFD4FF0FF30286029E02078242802D1D2
:104C80000EB1002425E020782A281AD1601D404565
:104C900016D8E0780D2813D120790A2810D11022D7
:104CA0000221601CFFF77EFF2860601DA8EB00005A
:104CB0003E1A2868484503D04FF0FF302860002492
:104CC00007E016B1207880EA0909641C761C444587
:104CD000D3D300BF2868002801DA04B1002630468B
:104CE000BDE8F0872E2E5C4472697665725C6E6D4D
:104CF00065615F6465636F64655C7372635C70615A
:104D00007273652E63000000627566662026262099
:104D10007265735F637263000FB430B5ADF2044D1A
:104D200001F09CFC8568ADB10DF21440CDF8000493
:104D300040F2FF316846DDF80034DDF81024FBF75F
:104D40004FFB04460020CDF80004002C02DD214674
:104D50006846A8470DF2044D30BC5DF814FB70B5F1
:104D600004460D4694ED101BB0EE410AF0EE610AC8
:104D700000F054F885ED000B94ED121BB0EE410AE3
:104D8000F0EE610A00F04AF885ED020B70BD0000FC
:104D900010B52DED0A8BB0EE408AF0EE608A9FEDE3
:104DA0001B0B53EC102B51EC180B01F00BFF41ECDB
:104DB0001A0B02F09BF8044602F0C7F841EC190BFD
:104DC0009FED120B53EC102B51EC190B02F010F964
:104DD00041EC1C0B53EC182B02F03EFA41EC1B0B80
:104DE0009FED0C0B53EC102B01F0ECFE41EC1A0B79
:104DF00053EC192B01F02AFE41EC180BB0EE480AD7
:104E0000F0EE680ABDEC0A8B10BD00000000000047
:104E1000000059400000000000004E4010B52DED8C
:104E2000048BB0EE408AF0EE608AB0EE480AF0EEF5
:104E3000680AFFF7ADFFB0EE409AF0EE609AFFF718
:104E4000CBFEBDEC048B10BD70B504460D4604B11D
:104E500004E0792241A14AA0FBF7BAFC052D01DA52
:104E6000002070BD4848052201682046FBF7F0FC91
:104E700008B90120F5E74448052241682046FBF7C0
:104E8000E7FC08B90220ECE73F480522816820468C
:104E9000FBF7DEFC08B90420E3E73B480522C168C4
:104EA0002046FBF7D5FC08B90820DAE7364805228A
:104EB00001692046FBF7CCFC08B91020D1E7324845
:104EC000052241692046FBF7C3FC08B92020C8E74A
:104ED0002D48052281692046FBF7BAFC08B940201D
:104EE000BFE729480522C1692046FBF7B1FC08B994
:104EF0008020B6E724480522016A2046FBF7A8FC7B
:104F000010B94FF48070ACE71F480522416A204673
:104F1000FBF79EFC10B94FF40070A2E71A48052277
:104F2000816A2046FBF794FC10B94FF4806098E743
:104F300015480522C16A2046FBF78AFC10B94FF4D8
:104F400000608EE710480522016B2046FBF780FCCD
:104F500010B94FF4805084E7002082E72E2E5C4485
:104F600072697665725C6E6D65615F6465636F64BE
:104F7000655C7372635C70617273652E6300000020
:104F80006275666600000000700000202DE9F8439D
:104F90000446884691461E4600270020009014B122
:104FA000A06800B104E056223FA148A0FBF710FC26
:104FB0004A464146204601F0FDF86BE07F1C402D3B
:104FC00055D00EDC082D2FD006DC012D1DD0022D72
:104FD00020D0042D5AD122E0102D2AD0202D55D1D9
:104FE0004FE0B5F5806F33D008DC802D44D0B5F5A7
:104FF000807F32D0B5F5007F48D133E0B5F5006F42
:1050000021D0B5F5805F41D118E031460098FFF717
:1050100039FB3BE031460098FFF798FB36E031461C
:105020000098FFF7F9FB31E031460098FFF782FC6A
:105030002CE031460098FFF753FD27E031460098F9
:10504000FFF74EF922E031460098FFF721FA1DE004
:1050500031460098FFF7A6FA18E031460098FFF7AE
:10506000E1FA13E031460098FFF7A0F90EE031466F
:105070000098FFF7A5F809E031460098FFF738F8E7
:1050800004E031460098FFF7D7FC00BF00BF00984E
:10509000FBF77FF96946204601F04CF805008DD1F9
:1050A0003846BDE8F88300002E2E5C4472697665B0
:1050B000725C6E6D65615F6465636F64655C73727D
:1050C000635C7061727365722E630000706172734D
:1050D0006572202626207061727365722D3E62759E
:1050E000666665720000000070B590B005460E4619
:1050F00014460DB104B105E040F2E2221FA128A040
:10510000FBF766FB50212046FBF76EFC3146284634
:1051100001F0C1FB04F1480104F1400204F138033D
:10512000181FCDE90D320F910C90011F0A1F131F9C
:105130001038CDE909320B910890011F0A1F131F87
:105140001038CDE9053207910490011F0838021F7D
:10515000231DCDE90032CDE90201234614A23146D8
:10516000284601F07FFA112805D020A0FFF74CFD5A
:10517000002010B070BD0120FBE700002E2E5C4423
:1051800072697665725C6E6D65615F6465636F649C
:10519000655C7372635C70617273652E63000000FE
:1051A00062756666202626207061636B0000000031
:1051B0002442444753412C25432C25642C25642C40
:1051C00025642C25642C25642C25642C25642C2531
:1051D000642C25642C25642C25642C25642C2564E2
:1051E0002C25662C25662C25662A00004244475350
:1051F00041207061727365206572726F72210000C8
:105200002DE9F04192B00746884614460FB104B12B
:1052100005E04FF419722AA132A0FBF7D9FA5C21FC
:105220002046FBF7E1FB4146384601F034FB04F130
:1052300058010A1F131F04F14800CDE90F321191E4
:105240000E90011F0A1F131F1438CDE90B320D9168
:105250000A90011F0A1F131F1438CDE90732099164
:105260000690011F0A1F0C381C3BCDE90230CDE926
:1052700004210C38211D23461E4ACDE90010414669
:10528000384601F0EFF906466068401E8500281D8B
:10529000A168814202DAA068401B00E004200546B4
:1052A000032000EB8505AE4201DB132E06DD12A0C4
:1052B000FFF7AAFC002012B0BDE8F0810120FAE758
:1052C0002E2E5C4472697665725C6E6D65615F64FA
:1052D00065636F64655C7372635C70617273652E85
:1052E0006300000062756666202626207061636B8D
:1052F00000000000FCB8000842444753562070618B
:10530000727365206572726F72210000F0B5CDB0C6
:1053100005460E4614460DB104B105E040F299125F
:1053200024A12DA0FBF754FA80212046FBF75CFB5B
:105330003146284601F0AFFA04F1780004F170011B
:1053400004F1680204F16003CDE90932CDE90B10E4
:1053500020382039203A203BCDE90532CDE907102D
:105360001C38011F183A183BCDE90132CDE9031072
:105370001C380DAB1CA231460090284601F072F992
:105380000E2805D025A0FFF73FFC00204DB0F0BD52
:105390000DA8FBF789FA0746224639460DA8FEF705
:1053A00071FD20B122A0FFF72FFC0020EEE70120C5
:1053B000ECE700002E2E5C4472697665725C6E6DBF
:1053C00065615F6465636F64655C7372635C706183
:1053D0007273652E630000006275666620262620C3
:1053E0007061636B0000000024474E4747412C2545
:1053F000732C25662C25432C25662C25432C2564EF
:105400002C25642C25662C25662C25432C25662C02
:1054100025432C25662C25642A000000474E47476B
:1054200041207061727365206572726F7221000095
:10543000474E4747412074696D65207061727365FE
:10544000206572726F7221002DE9F041C6B00646E8
:105450000F4614460EB104B105E040F23D221EA1F4
:1054600026A0FBF7B5F940212046FBF7BDFA3946E7
:10547000304601F010FA04F13900411E06AB04F188
:105480001802CDE90223CDE904102938303923462A
:105490001EA2CDE900103946304601F0E3F805467A
:1054A000072D06D021A0FFF7AFFB002046B0BDE8D6
:1054B000F08106A8FBF7F8F9804604F11C0241468A
:1054C00006A8FEF7DFFC20B11DA0FFF79DFB002022
:1054D000ECE70120EAE700002E2E5C447269766555
:1054E000725C6E6D65615F6465636F64655C737249
:1054F000635C70617273652E63000000627566669E
:10550000202626207061636B0000000024474E4770
:105510004C4C2C25662C25432C25662C25432C250C
:10552000732C25432C25432A00000000474E474C8E
:105530004C207061727365206572726F7221000079
:10554000474E474C4C2074696D65207061727365DD
:10555000206572726F7221002DE9F041CEB00646CF
:105560000F4614460EB104B105E040F2BF1227A168
:105570002FA0FBF72DF960212046FBF735FA3946BD
:10558000304601F088F904F15900411E04F150023F
:10559000CDE90942CDE90B10201D011D083A04F1A7
:1055A0004003CDE90532CDE9071034302831203AE7
:1055B000203BCDE90132CDE903101C380EAB20A20F
:1055C00039460090304601F04DF805460D2D08D0C3
:1055D0000E2D06D027A0FFF717FB00204EB0BDE828
:1055E000F0810EA8FBF760F98046224641460EA8DE
:1055F000FEF748FC20B124A0FFF706FB0020EDE7F2
:105600002068643020600120E8E700002E2E5C4412
:1056100072697665725C6E6D65615F6465636F6407
:10562000655C7372635C70617273652E6300000069
:1056300062756666202626207061636B000000009C
:1056400024474E524D432C25732C25432C25662C84
:1056500025432C25662C25432C25662C25662C25D8
:1056600032642532642532642C25662C25432C2592
:10567000432A0000474E524D4320706172736520EB
:105680006572726F72210000474E524D432074695B
:105690006D65207061727365206572726F72210092
:1056A00070B588B005460E4614460DB104B105E04C
:1056B0004FF4F57220A129A0FBF78AF8402120467B
:1056C000FBF792F93146284601F0E5F804F139007C
:1056D000411E04F1300204F12803CDE90432CDE982
:1056E000061019382039203A203BCDE90032CDE9A7
:1056F000021023461DA23146284600F0B3FF0928B8
:1057000005D023A0FFF780FA002008B070BD207AF2
:1057100054280AD1207E4D2807D194F828004E281D
:1057200003D194F838004B2804D01EA0FFF76CFA80
:105730000020EAE70120E8E72E2E5C4472697665D6
:10574000725C6E6D65615F6465636F64655C7372E6
:10575000635C70617273652E63000000627566663B
:10576000202626207061636B0000000024474E56FF
:1057700054472C25662C25432C25662C25432C25A7
:10578000662C25432C25662C25432C25432A000016
:10579000474E565447207061727365206572726F70
:1057A00072210000474E5654472070617273652085
:1057B0006572726F722028666F726D6174206572F7
:1057C000726F7229210000002DE9F041C8B0064631
:1057D0000F4614460EB104B105E040F215221DA19A
:1057E00025A0FAF7F5FF1C212046FBF7FDF8394606
:1057F000304601F050F845A946AA47AB201DCDE937
:10580000023204910190001D05AB1FA239460090A1
:10581000304600F027FF05464798A0F26C702060E4
:10582000062D06D020A0FFF7EFF9002048B0BDE814
:10583000F08105A8FBF738F880462246414605A8C6
:10584000FEF720FB20B11DA0FFF7DEF90020EDE7F9
:105850000120EBE72E2E5C4472697665725C6E6DFA
:1058600065615F6465636F64655C7372635C7061DE
:105870007273652E6300000062756666202626201E
:105880007061636B0000000024474E5A44412C2590
:10589000732C2532642C2532642C2534642C25325B
:1058A000642C2532642A0000474E5A44412070611E
:1058B000727365206572726F72210000474E5A4400
:1058C000412074696D652070617273652065727224
:1058D0006F722100F0B5CDB005460E4614460DB1ED
:1058E00004B104E0DA2224A12CA0FAF771FF802190
:1058F0002046FBF779F83146284600F0CCFF04F14A
:10590000780004F1700104F1680204F16003CDE94C
:105910000932CDE90B1020382039203A203BCDE95F
:105920000532CDE907101C38011F183A183BCDE9A4
:105930000132CDE903101C380DAB1CA2314600909A
:10594000284600F08FFE0E2805D025A0FFF75CF951
:1059500000204DB0F0BD0DA8FAF7A6FF074622467D
:1059600039460DA8FEF78EFA20B122A0FFF74CF9B8
:105970000020EEE70120ECE72E2E5C44726976658C
:10598000725C6E6D65615F6465636F64655C7372A4
:10599000635C70617273652E6300000062756666F9
:1059A000202626207061636B0000000024475047CA
:1059B00047412C25732C25662C25432C25662C2548
:1059C000432C25642C25642C25662C25662C254328
:1059D0002C25662C25432C25662C25642A000000E6
:1059E0004750474741207061727365206572726F3E
:1059F0007221000047504747412074696D6520704F
:105A000061727365206572726F72210070B590B01B
:105A100005460E4614460DB104B104E0FD221FA157
:105A200027A0FAF7D5FE50212046FAF7DDFF3146D0
:105A3000284600F030FF04F1480104F1400204F16F
:105A40003803181FCDE90D320F910C90011F0A1F6A
:105A5000131F1038CDE909320B910890011F0A1F5E
:105A6000131F1038CDE9053207910490011F083843
:105A7000021F231DCDE90032CDE90201234614A205
:105A80003146284600F0EEFD112805D01FA0FFF793
:105A9000BBF8002010B070BD0120FBE72E2E5C4447
:105AA00072697665725C6E6D65615F6465636F6473
:105AB000655C7372635C70617273652E63000000D5
:105AC00062756666202626207061636B0000000008
:105AD0002447504753412C25432C25642C25642C06
